:100000000200107A5A79FA78FAD8FED9FADAF6228A
:1000100075817F75E8007595007591301200037544
:10002000923075911212000375933075921275918A
:100030004012000375943075931275924075917853
:10004000120003758E30759412759340758F30755C
:100050008E1275944075937875922475917912007B
:1000600003758F12758E4075947875932475927907
:10007000759130120003758F40758E7875942475D4
:100080009379759230759179120003758F78758E1A
:100090002475947975933075927975917F12000368
:1000A000758F24758E7975943075937975927F75F7
:1000B000913F120003758F79758E30759479759321
:1000C0007F75923F75917F120003758F30758E7921
:1000D00075947F75933F75927F75917F12000375BC
:1000E0008F79758E7F75943F75937F75927F75912B
:1000F0007F120003758F7F758E3F75947F75937F98
:1001000075927F75917F120003758F3F758E7F7595
:10011000947F75937F75927F75917F120003758F21
:100120007F758E7F75947F75937F75927F75917FB4
:10013000120003758F40758E7F75947F75937F7560
:10014000927F75917F120003758F12758E407594A2
:100150007F75937F75927F75917F120003758F3045
:10016000758E1275944075937F75927F75917F128D
:100170000003758F30758E1275944075937F75925C
:100180007F759178120003758F30758E12759440CB
:1001900075937F759278759124120003758F307571
:1001A0008E1275944075937875922475917912002A
:1001B00003758F12758E40759478759324759279B6
:1001C000759130120003758F40758E787594247583
:1001D0009379759230759179120003758F78758EC9
:1001E0002475947975933075927975917F12000317
:1001F000758F24758E7975943075937975927F75A6
:10020000913F120003758F79758E307594797593CF
:100210007F75923F75917F120003758F30758E79CF
:1002200075947F75933F75927F75917F120003756A
:100230008F79758E7F75943F75937F75927F7591D9
:100240007F120003758F7F758E3F75947F75937F46
:1002500075927F75917F120003758F3F758E7F7544
:10026000947F75937F75927F75917F120003758FD0
:100270007F758E7F75947F75937F75927F75917F63
:10028000120003758F7F758E7F75943075937F751F
:10029000927F75917F120003758F7F758E7F7594A5
:1002A0007F75937F75921275917F120003758F4051
:1002B000758E7F75947F75937F75927F75917F1290
:1002C0000003758F7F758E7F75947F75937F759210
:1002D0007F759178120003758F7F758E7F75947F7F
:1002E00075937F75927F759124120003758F7F75CA
:1002F0008E7F75947F75937975927F75917F1200CB
:1003000003758F30758E12759440759378759224AD
:10031000759179120003758F7F758E7F7594307596
:0E032000937975927F75917F12000302004C55
:00000001FF
