:1000000002001D7A2879FA78FAD8FED9FADAF622AF
:100010007AB479FA7819D8FED9FADAF62220EA0FFA
:1000200020E90620E83802004720E8120200752087
:10003000E90620E80F0201CA20E80602028D02014B
:100040001F0202CF0201F7758F19758E3075941952
:1000500075930275921975917912000380BF758F9F
:10006000FF758EFF7594FF7593FF75920275913041
:1000700012000380A8758F19758E307594197593C9
:1000800002759219759179120003758F30758E196A
:100090007594027593197592797591021200037522
:1000A0008F19758E027594197593797592027591F1
:1000B00030120003758F02758E197594797593024D
:1000C000759230759119120003758F19758E7975B7
:1000D0009402759330759219759130120003758FE3
:1000E00079758E02759430759319759230759119E2
:1000F000120003758F02758E3075941975933075E3
:100100009219759102120003758F30758E197594CE
:1001100030759319759202759119120003011D75BE
:100120008F19758E307594197593027592197591A2
:1001300079120003758F30758E1975943075931987
:10014000759202759119120003758F02758E3075C4
:100150009419759330759219759102120003758F79
:1001600079758E0275943075931975923075911961
:10017000120003758F19758E797594027593307519
:100180009219759130120003758F02758E1975944E
:1001900079759302759230759119120003758F1954
:1001A000758E027594197593797592027591301256
:1001B0000003758F30758E197594027593197592B9
:1001C0007975910212000302001D758F19758E302A
:1001D00075941975930275921975917912000375CA
:1001E0008FFF758EFF7594FF7593FF7592FF759164
:1001F000FF12001002001D758FFF758EFF7594FFB2
:100200007593FF7592FF7591FF120003758F197535
:100210008EFF7594FF7593FF7592FF7591FF120025
:1002200003758F19758E307594FF7593FF7592FF66
:100230007591FF120003758F19758E3075941975BD
:1002400093FF7592FF7591FF120003758F19758EDC
:10025000307594197593027592FF7591FF12000322
:10026000758F19758E30759419759302759219757D
:1002700091FF120003758F19758E3075941975935F
:100280000275921975917912000302001D758F098C
:10029000758E067594477593477592407591FF1258
:1002A0000003758F19758E307594197593027592C8
:1002B00019759179120003758F46758E0C75942B04
:1002C00075933075927975912412000302001D75A3
:1002D0008FFF758EFF7594FF7593FF7592FF759173
:1002E000FF120003758F19758EFF7594FF7593FFCC
:1002F0007592FF7591FF120003758F19758E307519
:1003000094FF7593FF7592FF7591FF120003758F2F
:1003100019758E307594197593FF7592FF7591FF5D
:10032000120003758F19758E3075941975930275C7
:1003300092FF7591FF120003758F19758EFF7594EA
:10034000FF7593FF7592FF7591FF120003758F196A
:10035000758E797594FF7593FF7592FF7591FF12F5
:100360000003758F19758E797594027593FF7592D8
:10037000FF7591FF120003758F19758E79759402C0
:0F0380007593307592FF7591FF12000302001DF7
:00000001FF
