:100000000202817AB479FA78FAD8FED9FADAF622BD
:100010007AB479FA7819D8FED9FADAF622758F19F6
:10002000758E30759419759302759219759179755D
:100030008FFF758EFF7594FF7593FF759202759112
:1000400030020044758F19758E30759419759302BE
:10005000759219759179120003758F30758E197527
:100060009402759319759279759102120003758F38
:1000700019758E0275941975937975920275913080
:10008000120003758F02758E197594797593027538
:100090009230759119120003758F19758E797594C8
:1000A00002759330759219759130120003758F792E
:1000B000758E027594307593197592307591191279
:1000C0000003758F02758E30759419759330759293
:1000D00019759102120003758F30758E1975943061
:1000E00075931975920275911912000302004475F7
:1000F0008F19758E307594197593027592197591D3
:1001000079120003758F30758E19759430759319B7
:10011000759202759119120003758F02758E3075F4
:100120009419759330759219759102120003758FA9
:1001300079758E0275943075931975923075911991
:10014000120003758F19758E797594027593307549
:100150009219759130120003758F02758E1975947E
:1001600079759302759230759119120003758F1984
:10017000758E027594197593797592027591301286
:100180000003758F30758E197594027593197592E9
:1001900079759102120003758F19758E3075941957
:1001A0007593027592197591791200100201977575
:1001B0008FFF758EFF7594FF7593FF7592FF759194
:1001C000FF120003758F19758EFF7594FF7593FFED
:1001D0007592FF7591FF120003758F19758E30753A
:1001E00094FF7593FF7592FF7591FF120003758F51
:1001F00019758E307594197593FF7592FF7591FF7F
:10020000120003758F19758E3075941975930275E8
:1002100092FF7591FF120003758F19758E307594DA
:10022000197593027592197591FF120003758F1954
:10023000758E3075941975930275921975917912AE
:100240000003758F09758E067594477593477592EF
:10025000407591FF120003758F19758E30759419D2
:10026000759302759219759179120003758F467511
:100270008E0C75942B7593307592797591241200BC
:1002800003758FFF758EFF7594FF7593FF7592FF51
:100290007591FF120003758F19758EFF7594FF75A8
:1002A00093FF7592FF7591FF120003758F19758E7C
:1002B000307594FF7593FF7592FF7591FF120003DF
:1002C000758F19758E307594197593FF7592FF753A
:1002D00091FF120003758F19758E307594197593FF
:1002E000027592FF7591FF120003758F19758EFFCD
:1002F0007594FF7593FF7592FF7591FF120003755A
:100300008F19758E797594FF7593FF7592FF7591AE
:10031000FF120003758F19758E797594027593FF1E
:100320007592FF7591FF120003758F19758E79759F
:1003300094027593307592FF7591FF1200030202CB
:01034000813B
:00000001FF
